S0140000736166655F70726F6A6563742E737265631B
S11300000C9402010C941F010C941F010C941F0109
S11300100C941F010C941F010C941F010C941F01DC
S11300200C941F010C941F010C941F010C941F01CC
S11300300C941F010C941F010C941F010C941F01BC
S11300400C941F010C941F010C941F010C941F01AC
S11300500C941F014E01670180019901B101B101A6
S1130060B101B101B101B101B101B101B101B101FC
S1130070B101B101B101B101B101B101B101B101EC
S1130080B101B101B101B101B101B101B101B101DC
S1130090B101B1014E01670180019901BE01D7018F
S11300A0F00109022102210221022102210221027E
S11300B02102210221022102210221022102210224
S11300C02102210221022102210221022102210214
S11300D0210221022102210221022102BE01D701B3
S11300E0F00109022E02420256026A027E027E02D8
S11300F07E027E027E027E027E027E027E027E02FC
S11301007E027E027E027E027E027E027E027E02EB
S11301107E027E027E027E027E027E027E027E02DB
S11301207E027E022E02420256026A028B028D0277
S11301308F0291029202920292029202920292021F
S1130140920292029202920292029202920292020B
S113015092029202920292029202920292029202FB
S11301609202920292029202920292028B028D02F7
S11301708F0291029E02A002A202A402A502A5027D
S1130180A502A502A502A502A502A502A502A50233
S1130190A502A502A502A502A502A502A502A50223
S11301A0A502A502A502A502A502A502A502A50213
S11301B0A502A5029E02A002A202A402B202CB02E0
S11301C0E402FD02150315031503150315031503B6
S11301D0150315031503150315031503150315035B
S11301E0150315031503150315031503150315034B
S11301F0150315031503150315031503B202CB02EA
S1130200E402FD0211241FBECFE5D8E0DEBFCDBF5E
S113021011E0A0E6B0E0E0E9FCE002C005900D9238
S1130220A832B107D9F721E0A8E2B1E001C01D92DC
S1130230AC32B207E1F70E94E4040C9446060C9435
S1130240000041E063E082E40E94420141E064E096
S113025082E40E944201089541E063E082E40E9446
S1130260B20140E064E082E40E94B201089540E0FB
S113027063E082E40E94B20140E064E082E40E9410
S1130280B201089590E0FC01E154F109E432F10572
S113029008F067C0E65DFF4F0C944006413059F406
S11302A02AB381E090E002C0880F991F6A95E2F7B3
S11302B0822B8ABB08952AB381E090E002C0880FA4
S11302C0991F6A95E2F7809582238ABB089541308D
S11302D059F427B381E090E002C0880F991F6A9512
S11302E0E2F7822B87BB089527B381E090E002C038
S11302F0880F991F6A95E2F78095822387BB08953A
S1130300413059F424B381E090E002C0880F991F72
S11303106A95E2F7822B84BB089524B381E090E0D0
S113032002C0880F991F6A95E2F78095822384BBE7
S11303300895413059F421B381E090E002C0880F60
S1130340991F6A95E2F7822B81BB089521B381E05E
S113035090E002C0880F991F6A95E2F78095822386
S113036081BB089590E0FC01E154F109E432F10508
S113037008F067C0E25BFF4F0C944006413059F42B
S11303802BB381E090E002C0880F991F6A95E2F7D1
S1130390822B8BBB08952BB381E090E002C0880FC1
S11303A0991F6A95E2F7809582238BBB08954130AB
S11303B059F428B381E090E002C0880F991F6A9530
S11303C0E2F7822B88BB089528B381E090E002C055
S11303D0880F991F6A95E2F78095822388BB089558
S11303E0413059F425B381E090E002C0880F991F91
S11303F06A95E2F7822B85BB089525B381E090E0EE
S113040002C0880F991F6A95E2F78095822385BB05
S11304100895413059F422B381E090E002C0880F7E
S1130420991F6A95E2F7822B82BB089522B381E07B
S113043090E002C0880F991F6A95E2F780958223A5
S113044082BB089590E0FC01E154F109E432F10526
S113045008F054C0EE58FF4F0C94400649B381E0B5
S113046090E09C01062E02C0220F331F0A94E2F78B
S1130470842F90E08223932302C0959587956A95F3
S1130480E2F7089546B381E090E09C01062E02C095
S1130490220F331F0A94E2F7842F90E082239323E0
S11304A002C0959587956A95E2F7089543B381E074
S11304B090E09C01062E02C0220F331F0A94E2F73B
S11304C0842F90E08223932302C0959587956A95A3
S11304D0E2F7089540B381E090E09C01062E02C04B
S11304E0220F331F0A94E2F7842F90E08223932390
S11304F002C0959587956A95E2F7089580E008957E
S113050090E0FC01E154F109E432F10558F4EA56B3
S1130510FF4F0C9440066ABB089567BB089564BB03
S1130520089561BB089590E0FC01E154F109E432BF
S1130530F10558F4E654FF4F0C9440066BBB089544
S113054068BB089565BB089562BB089590E0FC0103
S1130550E154F109E432F10508F067C0E252FF4FBB
S11305600C944006413059F42BB381E090E002C072
S1130570880F991F6A95E2F7822B8BBB08952BB3E2
S113058081E090E002C0880F991F6A95E2F7809598
S113059082238BBB0895413059F428B381E090E065
S11305A002C0880F991F6A95E2F7822B88BB0895D1
S11305B028B381E090E002C0880F991F6A95E2F7A2
S11305C08095822388BB0895413059F425B381E096
S11305D090E002C0880F991F6A95E2F7822B85BBD1
S11305E0089525B381E090E002C0880F991F6A95B1
S11305F0E2F78095822385BB0895413059F422B3F4
S113060081E090E002C0880F991F6A95E2F7822B7F
S113061082BB089522B381E090E002C0880F991F45
S11306206A95E2F78095822382BB08958EBB9FBBB7
S11306306DBB8CB384608CBB8CB382608CBBE19942
S1130640FECF08958EBB9FBB8CB381608CBB8DB3F2
S1130650089541E060E083E40E94420141E061E0EA
S113066083E40E94420141E062E083E40E9442018B
S113067041E063E083E40E94420140E064E083E4FB
S11306800E94420140E065E083E40E94420140E0B0
S113069066E083E40E94420140E067E083E40E9454
S11306A0420141E064E083E40E94A60241E065E087
S11306B083E40E94A60241E066E083E40E94A6026D
S11306C041E067E083E40E94A6020895EF92FF925E
S11306D00F931F93CF93DF93CDB7DEB760970FB619
S11306E0F894DEBF0FBECDBF80E1E0E6F0E0DE01AE
S11306F0119601900D928A95E1F7F12CEE24EA947B
S113070039C041E060E083E40E94B20141E061E06D
S113071083E40E94B20141E062E083E40E94B201FA
S113072041E063E083E40E94B20140E06F2D83E482
S11307300E94B20110E019C064E0610F83E40E94DA
S11307402202082F811110C0EF2DF0E0EE0FFF1FE1
S1130750EE0FFF1F81E090E08C0F9D1FE80FF91F43
S1130760E10FF11DE08003C01F5F143028F3002364
S113077021F0F39493E09F1520F68E2D60960FB62A
S1130780F894DEBF0FBECDBFDF91CF911F910F91C3
S1130790FF90EF90089541E060E082E40E94B2018E
S11307A08FE99FE00197F1F700C0000040E060E0AE
S11307B082E40E94B2018FE99FE00197F1F700C043
S11307C000000895CF93C82F40E062E082E40E94C5
S11307D0B2016C2F81E40E9493020E94CB038FEC40
S11307E097E00197F1F700C00000CF9108952FEF33
S11307F081EE94E0215080409040E1F700C0000079
S11308006FEF81E40E94800241E060E082E40E9494
S1130810420141E061E082E40E94420141E062E081
S113082082E40E94420140E061E082E40E94B2015D
S113083088E30E94E2038FEC97E00197F1F700C090
S1130840000081E00E94E2038FE19EE40197F1F74A
S113085000C000008CE00E94E2038FEC97E0019757
S1130860F1F700C0000086E00E94E2038FEC97E0FD
S11308700197F1F700C000000895CF93C82F41E01D
S113088062E082E40E94B2016C2F81E40E94930230
S11308900E94CB03CF910895CF93DF93EC0103C063
S11308A00E943D04219688818111FACFDF91CF9176
S11308B0089581E00E94E2038FE19EE40197F1F73D
S11308C000C0000008959FEF980F923070F46131DA
S11308D070F4662371F0813019F42FE7260F0AC0F3
S11308E0823041F42FEB260F05C020E803C020E836
S11308F001C020E8822F0E94E2038FEC97E0019769
S1130900F1F700C000000895CF93DF930E945904CB
S113091080E790E00E944C04D0E01FC00E94660370
S1130920C82F8F3FD9F30E943D042FEF84E39CE04E
S1130930215080409040E1F700C000006AE06D0F54
S113094081E00E9463048AE20E943D048D2F90E0BE
S11309506C2F81960E941603DF5FD430F8F260E0BA
S113096080E290E00E941603DF91CF910895CF9327
S1130970DF930E9459048AE790E00E944C04D0E07F
S11309801EC00E946603C82F8F3FD9F30E943D0406
S11309902FEF84E39CE0215080409040E1F700C0B9
S11309A000006CE06D0F81E00E9463048AE20E9403
S11309B03D04ED2FF0E0E85DFE4FC083DF5FD430EF
S11309C000F3DF91CF9108950E94F7030E94290359
S11309D00E94210180E290E00E9422038F3F11F4E3
S11309E00E948404C3E00E94B704D091280181E2EC
S11309F090E00E942203D813BFC0D091290182E263
S1130A0090E00E942203D813B7C0D0912A0183E258
S1130A1090E00E942203D813AFC0D0912B0184E24E
S1130A2090E00E942203D813A7C00E94590486E8CC
S1130A3090E00E944C0461E082E00E94630487E934
S1130A4090E00E944C040E942C012FEF80E899E270
S1130A50215080409040E1F700C000000E9437011F
S1130A600E9466038134E1F70E94590487EA90E00A
S1130A700E944C0461E082E00E94630485EB90E0F4
S1130A800E944C040E9466039FEC980F9230D0F7AA
S1130A90813309F06AC02FEF81EE94E02150804049
S1130AA09040E1F700C000000E94B704C091280103
S1130AB081E290E00E942203C81338C0C09129014A
S1130AC082E290E00E942203C81330C0C0912A0140
S1130AD083E290E00E942203C81328C0C0912B0136
S1130AE084E290E00E942203C81320C00E94840480
S1130AF00E9459048CEB90E00E944C0461E082E077
S1130B000E9463048DEC90E00E944C042FEF83ED6F
S1130B1090E3215080409040E1F700C000000E9423
S1130B20590487E990E00E944C049ACF0E9459042A
S1130B308CED90E00E944C042FEF83ED90E3215064
S1130B4080409040E1F700C000000E9459048BEE01
S1130B5090E00E944C042FEF83ED90E321508040FD
S1130B609040E1F700C000007FCF0E94590487E95C
S1130B7090E00E944C0474CFDFEFDC0F61F10E941F
S1130B8059048CED90E00E944C042FEF83ED90E328
S1130B90215080409040E1F700C000000E945904B9
S1130BA08BEE90E00E944C0461E082E00E946304BA
S1130BB08CEF90E00E944C048FE28C0F0E943D0465
S1130BC02FEF83ED90E3215080409040E1F700C087
S1130BD00000CD2F08CF0E9459048CED90E00E94B4
S1130BE04C042FEF89E698E1215080409040E1F7D2
S1130BF000C000000E94590488E091E00E944C0467
S1130C002FEF83ED90E3215080409040E1F700C046
S1130C1000000E9459048BEE90E00E944C0461E0B5
S1130C2082E00E94630488E191E00E944C04D0E0D9
S1130C3023C02FEF80E792E0215080409040E1F7FD
S1130C4000C000006FE082E00E946304CDECDC9FF2
S1130C50C12D1124C695C695C69580E38C0F0E94BC
S1130C603D04CC0F8C2F880F880FC80F8D2F8C1B41
S1130C70805D0E943D04DF5FDC33D8F2C3E0B3CE75
S1130C80EE0FFF1F0590F491E02D0994F894FFCF27
S1130C903738392F3435362A3132332D41303D2B14
S1130CA073657420706173733A00636865636B20C5
S1130CB0706173733A00636F72726563742070615C
S1130CC07373776F7264007468652073616665205E
S1130CD06F70656E656400312D6368616E676520B1
S1130CE07061737300322D4261636B0070617373C2
S1130CF0776F7264206368616E6765640020207397
S1130D0075636365737366756C6C790077726F6E67
S1130D10672070617373776F726400706C656173C0
S1130D20652074727920616761696E007472696507
S1130D3073206C6566743A00746865207361666537
S1130D4020636C6F73656400696E203630206D69B2
S10B0D506E757465733A00002E
S9030000FC
